:100000000C942A000C9447000C9447000C94470071
:100010000C9447000C9447000C9447000C94470044
:100020000C9447000C9447000C9451030C94470027
:100030000C9447000C9447000C9447000C94470024
:100040000C9447000C9447000C9447000C94470014
:100050000C94470011241FBECFE5D8E0DEBFCDBF12
:1000600010E0A0E6B0E0EAE1F7E002C005900D92F2
:10007000A03BB107D9F710E0A0EBB0E001C01D92A2
:10008000A93BB107E1F70E9475030C948B030C9414
:100090000000282F672B11F0C19801C0C19AC09AA7
:1000A00088B3922F907F8F70982B98BBC0980000D8
:1000B000C09A88B32295207F8F70822B88BBC0980E
:1000C00088E893E10197F1F708951092B800109233
:1000D000B7001092B6001092B50081E061E070E0C8
:1000E0000E94490082EE94E00197F1F708950F9382
:1000F0001F9383EF87BB04EF11E0C8010197F1F76D
:1001000018BAC19882E061E070E00E944900C8011D
:100110000197F1F788E261E070E00E944900C801B0
:100120000197F1F786E061E070E00E944900C801A4
:100130000197F1F78CE061E070E00E944900C8018E
:100140000197F1F70E9465001F910F910895EF92BA
:10015000FF920F931F93062FE82EFF24C70126E07E
:10016000880F991F2A95E1F7860F806861E070E09B
:100170000E944900F092B800E092B70010E010939E
:10018000B6000093B50082EE94E00197F1F71F915D
:100190000F91FF90EF9008950F931F93CF93DF93EC
:1001A000062FEC0110E00CC0103121F481E060E07A
:1001B0000E94A700899160E070E00E9449001F5FE3
:1001C000101794F3DF91CF911F910F9108950F9322
:1001D0001F93082F8091B7009091B80060E00E94B3
:1001E000A70010E006C084E161E070E00E944900D1
:1001F0001F5F1017C0F306C080E260E070E00E944D
:1002000049000F5F0131C0F31F910F91089581E004
:100210008093AE008093AD000E94650080E060E0B6
:100220000E94A70080E690E06CE00E94CC00089558
:100230008091AD00813019F08230E1F51EC00E943E
:10024000650080E060E00E94A7008DE690E069E034
:100250000E94CC0081E060E00E94A70087E790E068
:100260006AE00E94CC0080E06FE00E94A70082E874
:1002700090E061E00E94CC0008950E94650080E05B
:1002800060E00E94A7008DE690E069E00E94CC004B
:1002900081E060E00E94A70087E790E06AE00E94AA
:1002A000CC0081E06FE00E94A70082E890E061E06E
:1002B0000E94CC0008958091AD00813019F0823009
:1002C000E1F51EC00E94650080E060E00E94A7008A
:1002D00084E890E066E00E94CC0081E060E00E944B
:1002E000A7008BE890E069E00E94CC0080E06FE01E
:1002F0000E94A70082E890E061E00E94CC0008958F
:100300000E94650080E060E00E94A70084E890E021
:1003100066E00E94CC0081E060E00E94A7008BE8CC
:1003200090E069E00E94CC0081E06FE00E94A700AD
:1003300082E890E061E00E94CC0008958091B100D5
:10034000882309F054C081E08093AE001092B2007F
:100350008091AD008230D9F0833059F1813009F0BD
:1003600064C00E94650080E060E00E94A70085E90B
:1003700090E065E00E94CC0081E060E00E94A70070
:100380008BE990E065E00E94CC0080E027C00E94ED
:10039000650080E060E00E94A70085E990E065E0EC
:1003A0000E94CC0081E060E00E94A7008BE990E011
:1003B00011C00E94650080E060E00E94A7008BE908
:1003C00090E065E00E94CC0081E060E00E94A70020
:1003D00081EA90E065E00E94CC0081E06FE00E943D
:1003E000A70082E890E061E00E94CC00089581308F
:1003F000E1F49091AE009130C1F48091AD00823073
:1004000039F0833061F0813081F40E940701089552
:100410008093AE009093AD000E94180108958093E0
:10042000AE009093AD000E945B01089580E885BB0B
:1004300047E050E0A9E1B0E061E070E015C0FD01E7
:100440003197F1F70197D9F725B341505040CB01CF
:10045000042E02C0880F991F0A94E2F7282725BBB3
:100460008FEF4F3F580719F088EB9BE0E8CF0895D6
:10047000EF92FF921F93CF93DF93C4E0D0E031E07F
:10048000E32EF12CC7010C2E02C0880F991F0A948D
:10049000E2F780958BBB89B38F708093B000809119
:1004A000B0008B3009F47FC08C3020F4873009F025
:1004B000EDC0AFC08D30B9F18E3009F0E7C0C73064
:1004C00001F59091AD00913031F08091B100882319
:1004D00011F4915033C08091B100813009F0D6C041
:1004E0008091AE00823029F4913009F4CFC0915050
:1004F00037C0833009F0CAC0913009F4C7C09150A9
:100500003BC0C43009F0C2C08091B400813009F012
:10051000BDC08FE00E94E70080E06FE00E94A7006E
:1005200087EA90E072C0C73061F59091AD009330DA
:1005300051F08091B100882331F49F5F9093AD001A
:100540000E949E01A3C08091B100813009F09EC03D
:100550008091AE00823049F4923009F497C09F5FD9
:100560009093AD000E94180191C0833009F08EC0B5
:10057000923009F48BC09F5F9093AD000E945B01A5
:1005800085C0C43009F082C08091B400813009F088
:100590007DC08FE00E94E70080E06FE00E94A7002E
:1005A00089EA90E032C0C730F9F41092B40010929A
:1005B000B3009091AE00923011F0933029F481E0B5
:1005C0008093AE009093AD008091B100882319F024
:1005D00081508093B1008091AE00813009F4B0CF9A
:1005E000823009F053C0BECFC43009F04FC08091B3
:1005F000B400813009F04AC08FE00E94E70080E03B
:100600006FE00E94A7008BEA90E061E00E94CC00BE
:100610003DC0C730D9F58091B100823019F08F5FAD
:100620008093B1008091AE00813019F40E949E0148
:1006300009C0823019F40E94180104C0833011F4FB
:100640000E945B018091AE00833071F48091B10013
:10065000823051F41091AD00113031F41093AE009E
:100660000E9407011093B1008091AE00833071F4B5
:100670008091B100823051F48091AD00823031F42C
:1006800081E08093B1000E94160215BA2196C8300D
:10069000D10509F0F7CEDF91CF911F91FF90EF9038
:1006A00008951F920F920FB60F9211242F933F932C
:1006B0004F935F936F937F938F939F93AF93BF936A
:1006C000EF93FF930E943802FF91EF91BF91AF919A
:1006D0009F918F917F916F915F914F913F912F915A
:1006E0000F900FBE0F901F90189580EF8ABB8FE080
:1006F0008BBB8FEF84BB15BA83B78D6083BF89B77F
:10070000826089BF8AE08CBF12BE78940E94770015
:0A0710000E946500FFCFF894FFCFB0
:10071A00312E2050727A796369736B6900322E31F7
:10072A002054696D657200322E322053746F7065E1
:10073A0072002A004D656E75203100332E31204437
:10074A00696F6479004D656E7531004D656E75325D
:10075A00004D656E75330031003400370001010029
:00000001FF
