:100000000C942A000C9447000C9447000C94470071
:100010000C943C040C9447000C9447000C9447004B
:100020000C9447000C9447000C949C030C944700DC
:100030000C9447000C9447000C9447000C94470024
:100040000C9447000C9447000C9447000C94470014
:100050000C94470011241FBECFE5D8E0DEBFCDBF12
:1000600010E0A0E6B0E0E0E7F9E002C005900D92F4
:10007000A83CB107D9F710E0A8ECB0E001C01D9290
:10008000A23DB107E1F70E94C0030C94B6040C94A2
:100090000000282F672B11F0C19801C0C19AC09AA7
:1000A00088B3922F907F8F70982B98BBC0980000D8
:1000B000C09A88B32295207F8F70822B88BBC0980E
:1000C00088E893E10197F1F708951092D10010921A
:1000D000D0001092CF001092CE0081E061E070E07D
:1000E0000E94490082EE94E00197F1F708950F9382
:1000F0001F9383EF87BB04EF11E0C8010197F1F76D
:1001000018BAC19882E061E070E00E944900C8011D
:100110000197F1F788E261E070E00E944900C801B0
:100120000197F1F786E061E070E00E944900C801A4
:100130000197F1F78CE061E070E00E944900C8018E
:100140000197F1F70E9465001F910F910895EF92BA
:10015000FF920F931F93062FE82EFF24C70126E07E
:10016000880F991F2A95E1F7860F806861E070E09B
:100170000E944900F092D100E092D00010E010936C
:10018000CF000093CE0082EE94E00197F1F71F912B
:100190000F91FF90EF9008950F931F93CF93DF93EC
:1001A000062FEC0110E00CC0103121F481E060E07A
:1001B0000E94A700899160E070E00E9449001F5FE3
:1001C000101794F3DF91CF911F910F9108950F9322
:1001D0001F93082F8091D0009091D10060E00E9481
:1001E000A70010E006C084E161E070E00E944900D1
:1001F0001F5F1017C0F306C080E260E070E00E944D
:1002000049000F5F0131C0F31F910F910895809154
:10021000CD0080FD03C085B38F5F85BB089581E06D
:100220008093C7008093C6000E94650080E060E074
:100230000E94A70080E690E06CE00E94CC00089548
:100240008091C600813019F08230E1F51EC00E9415
:10025000650080E060E00E94A7008DE690E069E024
:100260000E94CC0081E060E00E94A70087E790E058
:100270006AE00E94CC0080E06FE00E94A70082E864
:1002800090E061E00E94CC0008950E94650080E04B
:1002900060E00E94A7008DE690E069E00E94CC003B
:1002A00081E060E00E94A70087E790E06AE00E949A
:1002B000CC0081E06FE00E94A70082E890E061E05E
:1002C0000E94CC0008958091C600813019F08230E0
:1002D000E1F51EC00E94650080E060E00E94A7007A
:1002E00084E890E066E00E94CC0081E060E00E943B
:1002F000A7008BE890E069E00E94CC0080E06FE00E
:100300000E94A70082E890E061E00E94CC0008957E
:100310000E94650080E060E00E94A70084E890E011
:1003200066E00E94CC0081E060E00E94A7008BE8BC
:1003300090E069E00E94CC0081E06FE00E94A7009D
:1003400082E890E061E00E94CC00089515BA8091A7
:10035000C900882309F054C081E08093C70010923F
:10036000CA008091C6008230D9F0833059F18130C3
:1003700009F064C00E94650080E060E00E94A70070
:1003800085E990E065E00E94CC0081E060E00E9499
:10039000A7008BE990E065E00E94CC0080E027C0D8
:1003A0000E94650080E060E00E94A70085E990E07F
:1003B00065E00E94CC0081E060E00E94A7008BE92C
:1003C00090E011C00E94650080E060E00E94A700FC
:1003D0008BE990E065E00E94CC0081E060E00E9443
:1003E000A70081EA90E065E00E94CC0081E06FE028
:1003F0000E94A70082E890E061E00E94CC0008958E
:100400008130E1F49091C7009130C1F48091C60031
:10041000823039F0833061F0813081F40E940F0125
:1004200008958093C7009093C6000E94200108950C
:100430008093C7009093C6000E946301089580E8EE
:1004400085BB47E050E0A9E1B0E061E070E015C095
:10045000FD013197F1F70197D9F725B3415050408D
:10046000CB01042E02C0880F991F0A94E2F72827B7
:1004700025BB8FEF4F3F580719F088EB9BE0E8CF83
:100480000895EF92FF920F931F93CF93DF93C4E0F1
:10049000D0E031E0E32EF12C03E0C7010C2E02C0C6
:1004A000880F991F0A94E2F780958BBB89B38F70F0
:1004B0008093C8008091C8008B3009F47FC08C30D5
:1004C00020F4873009F026C1B2C08D30B9F18E30EA
:1004D00009F020C1C73001F59091C600913031F08C
:1004E0008091C900882311F4915033C08091C900D4
:1004F000813009F00FC18091C700823029F491301A
:1005000009F408C1915037C0833009F003C191301C
:1005100009F400C191503BC0C43009F0FBC0809188
:10052000CC00813009F0F6C08FE00E94E70080E047
:100530006FE00E94A70087EA90E075C0C73061F5C0
:100540009091C600933051F08091C900882331F416
:100550009F5F9093C6000E94A601DCC08091C900F5
:10056000813009F0D7C08091C700823049F49230C1
:1005700009F4D0C09F5F9093C6000E942001CAC0BA
:10058000833009F0C7C0923009F4C4C09F5F9093D4
:10059000C6000E946301BEC0C43009F0BBC0809198
:1005A000CC00813009F0B6C08FE00E94E70080E007
:1005B0006FE00E94A70089EA90E035C0C73011F5CE
:1005C0001092CC001092CB0015BA0E946500909159
:1005D000C700923011F0933029F481E08093C70076
:1005E0009093C6008091C900882319F081508093B0
:1005F000C9008091C700813009F4ADCF823009F085
:1006000089C0BBCFC43009F085C08091CC00813057
:1006100009F080C08FE00E94E70080E06FE00E9458
:10062000A7008BEA90E061E00E94CC0073C0C73065
:1006300009F070C08091C900823019F08F5F8093FB
:10064000C9008091C700813019F40E94A60109C039
:10065000823019F40E94200104C0833011F40E94FA
:1006600063018091C700813099F48091C900823084
:1006700079F41091C600113059F40E9465008DEA9A
:1006800090E06DE00E94CC001093CB001093CC0062
:100690008091C7008230D1F49091C9009230B1F4BA
:1006A0008091C6008130E1F59093CB001092CD008F
:1006B00015BA36C00093CB001092CD0015BA0E9437
:1006C00065008BEB90E065E00E94CC008091C70054
:1006D000833071F48091C900823051F41091C600CA
:1006E000113031F41093C7000E940F011093C9001C
:1006F0008091C700833071F48091C900823051F439
:100700008091C600823031F481E08093C9000E945C
:100710001F0215BA2196C830D10509F0BECE05C01A
:100720008091C600823091F6C5CFDF91CF911F91A5
:100730000F91FF90EF9008951F920F920FB60F92B6
:1007400011242F933F934F935F936F937F938F93D6
:100750009F93AF93BF93EF93FF930E944102FF914A
:10076000EF91BF91AF919F918F917F916F915F9129
:100770004F913F912F910F900FBE0F901F901895A2
:1007800080EF8ABB8FE08BBB8FEF84BB15BA83B73A
:100790008D6083BF89B7826089BF8AE08CBF12BE3B
:1007A00089B7806889BF85B58D6085BD8AEF83BDB7
:1007B00014BC78940E9477000E946500FFCF0F93CD
:1007C0001F93DF93CF9300D00F92CDB7DEB7209168
:1007D000CD00222351F480E06EE00E94A70081EC5E
:1007E00090E062E00E94CC003FC0822F90E08370D6
:1007F0009070892BC9F52F3E28F01092CD0015BAC4
:100800001092CB008091CD008695869590E08E0168
:100810000F5F1F4FB8014AE050E00E9471048091C1
:10082000CD00883298F480E06EE00E94A70084EC4E
:1008300090E061E00E94CC008FE00E94E70080E041
:100840006FE00E94A700C80161E009C08EE00E942D
:10085000E70080E06EE00E94A700C80162E00E940D
:10086000CC0085B38F5F85BB0F900F900F90CF9119
:10087000DF911F910F9108951F920F920FB60F9263
:1008800011242F933F934F935F936F937F938F9395
:100890009F93AF93BF93EF93FF938091CD008F5FB2
:1008A0008093CD009091CB00923031F480FD08C050
:1008B00085B38F5F85BB04C0933011F40E94DF03C2
:1008C000FF91EF91BF91AF919F918F917F916F9128
:1008D0005F914F913F912F910F900FBE0F901F90FE
:1008E0001895FB019F01E8944230C4F04532B4F4FE
:1008F0004A3029F497FB1EF4909581959F4F642F01
:1009000077270E94A204805D8A330CF0895D819371
:10091000CB010097A1F716F45DE251931082C90153
:100920000C949204DC01FC01672F71917723E1F7AD
:10093000329704C07C916D9370836291AE17BF07AC
:10094000C8F30895AA1BBB1B51E107C0AA1FBB1F18
:10095000A617B70710F0A61BB70B881F991F5A954B
:10096000A9F780959095BC01CD010895F894FFCF2B
:10097000312E2050727A796369736B6900322E319F
:100980002054696D657200322E322053746F706589
:1009900072002A004D656E75203100332E312044DF
:1009A000696F6479004D656E7531004D656E753205
:1009B000004D656E75330031003400370050727A97
:1009C000796369736B206E723A2000435A41533A3F
:0809D00000303000300001018D
:00000001FF
