:100000000C942A000C9447000C9447000C94470071
:100010000C9447000C9447000C9447000C94470044
:100020000C9447000C9447000C945D010C9447001D
:100030000C9447000C9447000C9447000C94470024
:100040000C9447000C9447000C9447000C94470014
:100050000C94470011241FBECFE5D8E0DEBFCDBF12
:1000600010E0A0E6B0E0E2E1F3E002C005900D92FE
:10007000AA39B107D9F710E0AAE9B0E001C01D9292
:10008000A13AB107E1F70E94B7000C9487010C94E4
:100090000000C09A98B3282F207F9F70292B28BB7F
:1000A000C098C09A98B38295807F9F70982B98BB18
:1000B000C098089510929E0010929D001092A0008A
:1000C00010929F0081E00E94490008950F931F93B2
:1000D0008FEF87BB18BA82E00E944900C198C09A8E
:1000E00002EE14E0C8010197F1F788E20E9449008E
:1000F000C8010197F1F786E00E944900C801019705
:10010000F1F78CE00E944900C8010197F1F70E94C5
:100110005A001F910F9108958FE78BBB89B390E030
:100120008F7090708D309105A9F08E30910534F468
:1001300087309105A9F00B97B1F40FC08E3091056F
:1001400019F00F9781F403C08DE090E00EC080E0BD
:1001500090E00BC08EE090E008C08FE090E005C01A
:1001600080E190E002C08FEF90E085BB089580EFC2
:100170008ABB8FE08BBB8FE184BB15BA0E946600FF
:1001800083B7886083BF81E083BF8AE082BF1CBEE3
:1001900089B7826089BF12BE89B7826089BF7894AF
:1001A000FFCFEF92FF920F931F93062FC198E82E77
:1001B000FF24C70126E0880F991F2A95E1F7860FD3
:1001C00080680E944900C19AF0929E00E0929D00D2
:1001D00010E01093A00000939F001F910F91FF90DB
:1001E000EF9008950F931F93082F60E00E94D100B5
:1001F00010E004C084E10E9449001F5F1017D1F78E
:1002000004C080E20E9449000F5F0131D0F31F91CA
:100210000F910895FF920F931F93CF93DF93182FA1
:10022000092FF62E80E060E00E94D100212F302FB0
:10023000C901EC0110E00AC0103121F481E060E056
:100240000E94D10089910E9449001F5F1F15A4F3ED
:10025000DF91CF911F910F91FF900895DF93CF937E
:10026000CDB7DEB76D970FB6F894DEBF0FBECDBF2A
:100270009E012F5F3F4F0E9749F4D901E0E6F0E071
:100280008DE101900D928150E1F708C0D901EDE7B1
:10029000F0E08DE101900D928150E1F7CE010196E1
:1002A0006DE170E00E940A016D960FB6F894DEBF12
:1002B0000FBECDBFCF91DF9108951F920F920FB661
:1002C0000F9211242F933F934F935F936F937F93DC
:1002D0008F939F93AF93BF93EF93FF930E948C00F4
:1002E00090939C0080939B000E942E01FF91EF91C0
:1002F000BF91AF919F918F917F916F915F914F913E
:100300003F912F910F900FBE0F901F901895F8946A
:02031000FFCF1D
:100312004D6C796E656B20522E20202020202020EB
:1003220050727A796369736B206E723A324D6C79CE
:100332006E656B20522E2020202020202050727AC1
:0A034200796369736B206E723A3123
:00000001FF
