:100000000C942A000C9447000C9447000C94470071
:100010000C9447000C9447000C9447000C94470044
:100020000C9447000C9447000C9421020C94470058
:100030000C9447000C9447000C9447000C94470024
:100040000C9447000C9447000C9447000C94470014
:100050000C94470011241FBECFE5D8E0DEBFCDBF12
:1000600010E0A0E6B0E0EAE1F5E002C005900D92F4
:10007000A03AB107D9F710E0A0EAB0E001C01D92A4
:10008000A53AB107E1F70E9445020C948B020C944B
:100090000000282F88B3672B11F0C19801C0C19AC6
:1000A000C09A88B3922F907F8F70982B98BBC0987E
:1000B0000000C09A88B32295207F8F70822B88BB66
:1000C000C09888E893E10197F1F708951092A40091
:1000D0001092A3001092A2001092A10081E061E0B2
:1000E00070E00E94490082EE94E00197F1F70895D4
:1000F0000F931F9383EF87BB04EF11E0C8010197B3
:10010000F1F718BAC19882E061E070E00E944900FE
:10011000C8010197F1F788E261E070E00E944900B0
:1001200008E813E1C8010197F1F786E061E070E0AB
:100130000E944900C8010197F1F78CE061E070E08E
:100140000E944900C8010197F1F70E9466001F91C3
:100150000F910895EF92FF920F931F93062FE82EB1
:10016000FF24C70126E0880F991F2A95E1F7860F23
:10017000806861E070E00E944900F092A400E09283
:10018000A30010E01093A2000093A10082EE94E07F
:100190000197F1F71F910F91FF90EF9008950F9342
:1001A0001F93CF93DF93062FEC0110E00CC01031AA
:1001B00021F481E060E00E94AA00899160E070E093
:1001C0000E9449001F5F101794F3DF91CF911F9198
:1001D0000F9108950F931F93082F8091A300909182
:1001E000A40060E00E94AA0010E006C084E161E083
:1001F00070E00E9449001F5F1017C0F306C080E244
:1002000060E070E00E9449000F5F0131C0F31F9170
:100210000F910895EF92FF921F93CF93DF9310E019
:10022000C4E0D0E031E0E32EF12CC7010C2E02C077
:10023000880F991F0A94E2F780958BBB89B38F7062
:100240008093A0008091A0008D3081F08E3028F442
:10025000873091F08B3099F40CC08E3021F08F30C4
:1002600071F410E00CC0CE01835008C0CE018F5F46
:1002700005C0CE018B5F02C0CE01875F182F15BB72
:1002800085B3883009F476C08930A0F4843009F44D
:1002900049C0853040F4823081F18330C8F5813027
:1002A00009F0C4C020C0863009F450C0873008F07F
:1002B00057C042C08C3009F485C08D3038F48A3084
:1002C00009F46CC08B3008F073C05EC08E3009F446
:1002D0008DC08E3008F480C08F3009F491C0803119
:1002E00009F0A4C097C08DE00E94EA0081E06EE0B2
:1002F0000E94AA0080E690E009C08DE00E94EA001A
:1003000081E06EE00E94AA0082E690E061E08CC08D
:100310008DE00E94EA0081E06EE00E94AA0084E67F
:1003200090E0F4CF8DE00E94EA0081E06EE00E9450
:10033000AA0086E690E0EACF8DE00E94EA0081E024
:100340006EE00E94AA0088E690E0E0CF8DE00E9477
:10035000EA0081E06EE00E94AA008AE690E0D6CF33
:100360008DE00E94EA0081E06EE00E94AA008CE627
:1003700090E0CCCF8DE00E94EA0081E06EE00E9428
:10038000AA008EE690E0C2CF8DE00E94EA0081E0F4
:100390006EE00E94AA0080E790E0B8CF8DE00E9456
:1003A000EA0081E06EE00E94AA0082E790E03BC094
:1003B0008DE00E94EA0081E06EE00E94AA0085E7DD
:1003C00090E031C08DE00E94EA0081E06EE00E9482
:1003D000AA0088E790E027C08DE00E94EA0081E053
:1003E0006EE00E94AA008BE790E01DC08DE00E94A5
:1003F000EA0081E06EE00E94AA008EE790E013C060
:100400008DE00E94EA0081E06EE00E94AA0081E88F
:1004100090E009C08DE00E94EA0081E06EE00E9459
:10042000AA0084E890E062E00E94CF002196C830E4
:10043000D10509F0FACEDF91CF911F91FF90EF9097
:1004400008951F920F920FB60F9211242F933F938E
:100450004F935F936F937F938F939F93AF93BF93CC
:10046000EF93FF930E940A01FF91EF91BF91AF912B
:100470009F918F917F916F915F914F913F912F91BC
:100480000F900FBE0F901F901895DF93CF93CDB7AD
:10049000DEB768970FB6F894DEBF0FBECDBF80EF12
:1004A0008ABB8FE08BBB84B38F6184BB81E085BB4B
:1004B00083B78D6083BF89B7826089BF85E08CBFB9
:1004C00012BE78940E947800DE011196E3E9F0E014
:1004D0008CE001900D928150E1F7DE011D96E7E876
:1004E000F0E08CE001900D928150E1F70E946600EF
:1004F00080E060E00E94AA00CE0101966CE00E94BC
:10050000CF0081E060E00E94AA00CE010D966CE071
:0A0510000E94CF00FFCFF894FFCF48
:10051A00310032003300340035003600370038002D
:10052A003900313000313100313200313300313499
:10053A000031350031360050727A796369736B2065
:10054A006E723A4D616B73796D69756B204B2E0033
:00000001FF
