:100000000C942A000C9447000C9447000C94470071
:100010000C9447000C9447000C9447000C94470044
:100020000C9447000C9447000C9499020C944700E0
:100030000C9447000C9447000C9447000C94470024
:100040000C9447000C9447000C9447000C94470014
:100050000C94470011241FBECFE5D8E0DEBFCDBF12
:1000600010E0A0E6B0E0E8EAF5E002C005900D92ED
:10007000A639B107D9F710E0A6E9B0E001C01D929A
:10008000AE39B107E1F70E94BD020C94D2020C9484
:100090000000282F672B11F0C19801C0C19AC09AA7
:1000A00088B3922F907F8F70982B98BBC0980000D8
:1000B000C09A88B32295207F8F70822B88BBC0980E
:1000C00088E893E10197F1F7089510929D0010924E
:1000D0009C0010929B0010929A0081E061E070E019
:1000E0000E94490082EE94E00197F1F708950F9382
:1000F0001F9383EF87BB04EF11E0C8010197F1F76D
:1001000018BAC19882E061E070E00E944900C8011D
:100110000197F1F788E261E070E00E944900C801B0
:100120000197F1F786E061E070E00E944900C801A4
:100130000197F1F78CE061E070E00E944900C8018E
:100140000197F1F70E9465001F910F910895EF92BA
:10015000FF920F931F93062FE82EFF24C70126E07E
:10016000880F991F2A95E1F7860F806861E070E09B
:100170000E944900F0929D00E0929C0010E01093D4
:100180009B0000939A0082EE94E00197F1F71F9193
:100190000F91FF90EF9008950F931F93CF93DF93EC
:1001A000062FEC0110E00CC0103121F481E060E07A
:1001B0000E94A700899160E070E00E9449001F5FE3
:1001C000101794F3DF91CF911F910F9108950F9322
:1001D0001F93082F80919C0090919D0060E00E94E9
:1001E000A70010E006C084E161E070E00E944900D1
:1001F0001F5F1017C0F306C080E260E070E00E944D
:1002000049000F5F0131C0F31F910F9108950E94C3
:10021000650080E060E00E94A70080E690E06BE06F
:100220000E94CC00089580919500813019F08230B1
:10023000E1F51EC00E94650080E060E00E94A7001A
:100240008CE690E069E00E94CC0081E060E00E94D2
:10025000A70086E790E06AE00E94CC0081E06FE0B2
:100260000E94A70081E890E061E00E94CC00089520
:100270000E94650080E060E00E94A7008CE690E0AC
:1002800069E00E94CC0081E060E00E94A70086E760
:1002900090E06AE00E94CC0080E06FE00E94A7003E
:1002A00081E890E061E00E94CC0008950E94650022
:1002B00080E060E00E94A70083E890E065E00E9493
:1002C000CC0008951F9390919700992309F053C093
:1002D0001092980010929900809195008230D9F088
:1002E0008330B9F1813009F06AC00E94650080E076
:1002F00060E00E94A70083E890E065E00E94CC00E7
:1003000081E060E00E94A70089E890E065E00E943B
:10031000CC0080E015C00E94650080E060E00E9493
:10032000A70083E890E065E00E94CC0081E060E0F7
:100330000E94A70089E890E065E00E94CC0081E07F
:100340006FE00E94A70081E890E061E00E94CC008D
:1003500036C00E94650080E060E00E94A70089E846
:1003600090E065E00E94CC0081E060E00E94A70080
:100370008FE890E0E1CF913011F5109195001130A8
:1003800049F4809198008823D1F40E9407011093CA
:10039000990015C0123049F480919800882379F4AF
:1003A000909398000E9413010AC0133041F4809189
:1003B0009800882321F4909399000E9456011F9180
:1003C0000895EF92FF920F931F93CF93DF93C4E0B2
:1003D000D0E001E010E042E0F42E33E0E32EC8016B
:1003E0000C2E02C0880F991F0A94E2F780958BBBF0
:1003F00089B38F7080939600809196008B3009F4BA
:1004000056C08C3020F4873009F087C06DC08D3025
:1004100049F18E3009F081C0C73009F07EC090915B
:100420009500913039F080919800813019F0915009
:100430009093950080919500813031F080919900E2
:10044000813011F4E0929500809195008130C1F0E7
:10045000809198008130A1F40E9413018091950051
:10046000815022C0C73009F058C090919500933058
:1004700051F080919700882331F49F5F909395000D
:100480000E9462014AC080919700813009F045C006
:1004900080919800813009F040C09230F1F10E94C3
:1004A0001301809195008F5F8093950036C0C7300F
:1004B000A1F580919700882321F0815080939700C7
:1004C0002CC080919800813029F4F0929500109210
:1004D000980023C080919900813019F410929900FE
:1004E0001CC08823D1F4CCCFC730B9F480919700D9
:1004F000823019F08F5F809397000E946201809193
:100500009900813051F480919700823031F48091CC
:100510009500833011F40E9407012196C830D1055F
:1005200009F05DCFDF91CF911F910F91FF90EF9078
:1005300008951F920F920FB60F9211242F933F939D
:100540004F935F936F937F938F939F93AF93BF93DB
:10055000EF93FF930E94E101FF91EF91BF91AF9163
:100560009F918F917F916F915F914F913F912F91CB
:100570000F900FBE0F901F90189580EF8ABB8FE0F1
:100580008BBB84BB15BA83B78D6083BF89B782608C
:1005900089BF8AE08CBF12BE78940E9477000E94C7
:0805A0006500FFCFF894FFCFC6
:1005A800312E50727A796369736B6900322E31206B
:1005B80054696D657200322E322053746F70657203
:1005C800002A004D656E7531004D656E7532004D1F
:0605D800656E75330001A1
:00000001FF
